:020000040000FA
:1000000040280000FD040000010500000305000079
:1000100000000000000000000000000000000000E0
:1000200000000000000000000000000005050000C6
:100030000705000000000000090500000B05000096
:100040000D0500000D0500000D050000000000007A
:10005000000000000D0500000D0500000D0500006A
:100060000D0500000D0500000D0500000D05000048
:100070000D0500000D0500000D050000000000004A
:10008000000000000D0500000D0500000D0500003A
:100090000D0500000D0500000D0500000D05000018
:1000A0000D0500000D0500000D0500000D05000008
:1000B0000D0500000D0500000348854600F0C2FA5A
:1000C00000480047E51000004028000040BA704793
:1000D000C0BA704710B4026800BF03689A4303684F
:1000E0001340026804689443026894430268144011
:1000F000026894431C400C42EDD010BC704710B411
:10010000026800BF00BF00BF00BF03689A4300BF82
:1001100000BF00BF0368134000BF00BF00BF0268FC
:100120000468944300BF00BF00BF0268944300BF4F
:1001300000BF00BF0268144000BF00BF00BF0268DC
:1001400094431C400C4200BF00BF00BFD8D010BC7D
:10015000704730B55B180124E4020FB400F0B4FB23
:100160000FBC00BF00BF05682542FCD0013A00BFAC
:1001700000BF00BF00BF00BF00BF00BF00BFF5DA77
:1001800002780A7000BF00BF02784A7000BF00BF4B
:1001900002788A70033100BF02780A7099420278AF
:1001A0004A70F5DB05682542FCD130BD30B55B18DF
:1001B0000124E4020FB400F091FB0FBC0568254256
:1001C000FCD0013A00BF00BF00BF00BF00BF00BFAE
:1001D00000BF00BF00BF00BF00BF00BF00BF00BF27
:1001E00000BF00BF00BF00BF00BF00BFE9DA00BF13
:1001F00000BF02780A7000BF00BF00BF0131994202
:10020000F7DB05682542FCD130BD70B55B005B189B
:100210000124E4020FB400F061FB0FBC0568254225
:10022000FCD0013A00BF00BF00BF00BF00BF00BF4D
:1002300000BF00BF00BF00BF00BF00BF00BF00BFC6
:1002400000BF00BF00BF00BF00BF00BFE9DA00BFB2
:1002500000BF027800BF00BF00BF00BF00BF00BFEB
:1002600000BF00BF00BF00BF057800BF00BF00BFD8
:1002700000BF00BF00BF00BF00BF00BF00BF0678C7
:10028000B6180E8000BF00BF00BF00BF00BF00BF98
:1002900000BF067876194E8000BF00BF0431994236
:1002A000D7DB05682542FCD170BDF0B5059CA418CC
:1002B0000125ED020FB400F011FB0FBC06682E42C1
:1002C000FCD0013B00BF00BF00BF00BF00BF00BFAC
:1002D00000BF00BF00BF00BF00BF00BF00BF00BF26
:1002E00000BF00BF00BF00BF00BF00BFE9DA00BF12
:1002F00000BF03780E88F61800BF00BF00BF00BF24
:1003000000BF00BF00BF03784F88FF1800BF00BFC9
:1003100000BF00BF00BF00BF00BF0378F618B608DB
:10032000167000BF00BF00BF00BF00BF00BF037852
:10033000FF18BF08577004310232A242D9DB0668A9
:100340002E42FCD1F0BD000040BA7047C0BA7047E1
:1003500030B552180125ED020FB400F0BFFA0FBC02
:1003600003682B42FCD000BF00BF037800BF00BF72
:1003700000BF00BF00BF00BF00BF00BF00BF00BF85
:1003800003781B197F3B5B100B700131914200BF5A
:10039000EBDB03682B42FCD130BDFEB5089CA146C7
:1003A0000125ED020FB400F099FA0FBC06682E4249
:1003B000FCD08C460024057800BF00BF00BF00BF02
:1003C00000BF00BF0026B0464C4565DA06787619B6
:1003D0007F3E76103606360C1D5D3543515D013487
:1003E00005784F077F0F002FECD0A24688444C457C
:1003F00052DA00BF00BF067876197F3E76103606C7
:10040000360C1D5D3543515D013405784E07760F7E
:10041000BE42D7D100BF00BF8B4688444C453BDA73
:10042000067876197F3E76103606360C1D5D35430C
:10043000515D013405784E07760FBE42ECD0D844AA
:100440004C4529DA00BF00BF00BF067876197F3E11
:1004500076103606360C1D5D3543515D0134057846
:100460004E07760FBE42D7D05546EE003E43611B85
:100470000D032E43099D495D4546CD406D052E4334
:1004800009070E436146042705780E60BC44002628
:10049000B046013400BF99E70026B04512D055465A
:1004A000EE003E43611B0D032E43099D495D454609
:1004B000CD406D052E4309070E436146042705789C
:1004C0000E60BC440125ED0206682E42FCD1604658
:1004D0000099401A0A9A0B9B9B000C9CA4000025D3
:1004E000A84208D04E59D650043304359C4200D05F
:1004F000F6E70023F4E78008FEBD0000044800474B
:10050000FEE7FEE7FEE7FEE7FEE7FEE7FEE70000A8
:10051000B90000007046704703460B439B0703D0A9
:1005200009E008C9121F08C0042AFAD203E00B78B8
:100530000370401C491C521EF9D27047D2B201E030
:100540000270401C491EFBD270470022F6E710B52E
:1005500013460A4604461946FFF7F0FF204610BD31
:10056000421C0178401C0029FBD1801A704710B54D
:10057000002200E0521C835C8C5CA34201D1002B62
:10058000F8D1D8B2E1B2401A10BDCB0FDB07490059
:1005900010B5490802460A4307D00A0D072409038B
:1005A000E401090B121B002A01DC002010BDC90068
:1005B000440F0C43C100E018D205801800F001F888
:1005C00010BD002904DA401C490001D14008400058
:1005D000704770B40024050C05D11024000402D12A
:1005E000002921D01124050E01D100020834050F85
:1005F00001D10001241D850F01D18000A41C002819
:1006000001DB4000641C002908D020252E1B0D466C
:10061000F540A14000D001212943084301061B1BDE
:10062000000ADB1D02D5002070BC7047DB051818DE
:1006300080180029F8DA401C4900F5D170BC400848
:1006400040007047064C0125064E05E0E36807CCE4
:100650002B430C3C98471034B442F7D3FFF730FDDE
:1006600088150000A815000002E008C8121F08C184
:10067000002AFAD170477047002001E001C1121F23
:10068000002AFBD170470000F0B585B005468A48C6
:10069000006804460C3406E12968081D28600E78BD
:1006A000002E00D100E103942046641C83490968B0
:1006B0000E5437464021304688430646012E09D164
:1006C0002A68111D2960117848B27C4909680855CB
:1006D000641CD1E0022E17D12A68111D29601188EF
:1006E00008B2E107C90F002903D061084900891C3D
:1006F00000E021460C46611E704A126857546F494B
:1007000009680853A41CB7E0042E01D0642F16D149
:100710002A68111D29601068A107890F002903D0DC
:10072000A1088900091D00E021460C46611E634AAC
:1007300012685754614909680851241D9CE0142E21
:1007400020D12868C01DC008C000014608302860BC
:100750000A6849681046FFF718FF0190A007800F4C
:10076000002803D0A0088000001D00E020460446B9
:10077000601E524909680F54504901980968085190
:10078000241D79E0A12E24D12968081D286008685D
:1007900001900198FFF7E4FE401C009000980119B9
:1007A000474800680838814209D90099081900F0C3
:1007B00045FD0490002802DA049805B0F0BD3F49D9
:1007C00009680819009A0199FFF7A6FE00982418F5
:1007D00052E08020304000284BD03007000F0190BD
:1007E0002968081D286008680090A007800F00286D
:1007F00003D0A0088000001D00E020460446601ED3
:100800002E4909680F542D49009809680851241D84
:100810000198401E2040002806D00198401E214625
:1008200081430198081800E0204604460199009889
:100830004843009000980119214800680838814217
:1008400008D90099081900F0F9FC0490002801DA91
:100850000498B2E72968081D2860086802901749C3
:1008600009680819009A0299FFF756FE00982418A3
:1008700002E00220C043A0E712480068002804D12B
:1008800040203840002800D0039C0D4800680838FC
:10089000A04208D20A48006800F0D0FC049000286A
:1008A00001DA049889E7F7E600BF20460C380249D0
:1008B0000860002081E700002420000020200000C4
:1008C000282000003020000010B501214903024813
:1008D000FFF700FC10BD000004610F4010B50121BE
:1008E00049030248FFF70BFC10BD000004610F40F4
:1008F0000FB438B505A800906846FFF7C5FE04465A
:1009000000200090204638BC08BC04B018470020E6
:100910007047000010B500201449086014490860B1
:1009200014490860022000F05FFB134908600120B1
:1009300000F05AFB1149086000F053FB1049088091
:1009400020201049088009880C225143084600F0F5
:10095000D7FB0D4908600B4800880C225043014624
:1009600009480068FFF7F1FD002010BD1C200000C1
:100970002C20000030200000282000002020000053
:100980001A200000182000001420000010B58EB0BE
:10099000002408E001AA68463021415E08A8007DD5
:1009A00000F002FA641C002301AA0CA90DA800F0B3
:1009B00049FC0028EED020460EB010BD70B50446AC
:1009C0000D462946204600F0A7FD002802DA002047
:1009D000C04370BD0020FCE700B5002207E01046D0
:1009E00000F0FCFAC01C044909688854521CFF201E
:1009F00041308242F3DB00BD1020000010B50749F2
:100A000007A0FFF7DBFF074907A0FFF7D7FF08495B
:100A100008A0FFF7D3FF002010BD0000710A0000FE
:100A200072756E00A10A000073746F700000000000
:100A3000950A000072756E6E696E670013E001E042
:100A4000FFF7A4FF084800780028F9D000F026FD41
:100A500003E000F03DFBFFF799FF03480078002812
:100A6000F7D102490870EAE70520000004200000E1
:100A70000146087840B2044A10700120034A107001
:100A8000034A107000207047062000000520000077
:100A90000420000001480078704700000420000096
:100AA00000200149087070470520000010B5034977
:100AB00003A0FFF783FF002010BD0000210B000002
:100AC0006765744672616D650000000010B500280E
:100AD00023D0124B0022001F196803E0814203D883
:100AE0000A4649680029F9D1002A0AD01368841AF5
:100AF0009C4204D1006818181060104602E0506053
:100B000000E01860002907D002680B1A934203D155
:100B10000B68D21802604968416010BD34200000A3
:100B2000FEB504460D4616461F46207800280BD118
:100B30002868009009990B8808990A8839880191DA
:100B4000308800F0A1F820E0207811280BD1286827
:100B500000900998038808980288398830880190A5
:100B600000F0B2F811E0207821280BD1286800901D
:100B7000099803880898028839883088019000F025
:100B8000C3F802E00020C043FEBD0020FCE70000E7
:100B9000F3B589B00A980068089009980068079032
:100BA0000798C61DF9363746FF3745373248006883
:100BB000B84203D030480760FFF70EFF00F004FB97
:100BC000402803DA0020C0430BB0F0BD0020C04332
:100BD00000F0CCFA002000F07DFC002501200690FA
:100BE00046E000F0F1FA402802DA0020C043EBE7CB
:100BF000002000F0BBFAFF22413231461F48FFF7C8
:100C0000A7FB1F4A1F48006840881E490968083131
:100C1000194B1B680193049202910390FF2041300D
:100C2000334600901548089A0799FFF7B6FB04462B
:100C30001448006840880019124909684880114822
:100C4000006840880E49884206D30E4800684088F4
:100C5000401A0C49096848800A48006880880019D1
:100C6000084909688880611C0698401806906D1C28
:100C7000C82DB6D30020A7E71020000004610F4064
:100C8000FE0B000000200000F8B504460D46164695
:100C90001F4664086D086D00284600F01BFC00200C
:100CA00000900BE03346224606480699FFF751FABA
:100CB0000098401C00900698801906900098B84251
:100CC000F0D3F8BD04610F40F8B504460D46164652
:100CD0001F4664086D086D00284600F0FBFB0020ED
:100CE00000900BE03346224606480699FFF75EFA6D
:100CF0000098401C00900698801906900098B84211
:100D0000F0D3F8BD04610F40FFB581B014460A9FCF
:100D100004986043C01906461036F007C00F00283B
:100D200003D070084000801C00E0304606460025D5
:100D300003E00020690070526D1CA542F9D30299AE
:100D4000480000F0C7FB00943A4631461548019B25
:100D5000FFF7ABFA3F1900251EE023463146114844
:100D6000019AFFF752FA6000811923460D48019A53
:100D7000FFF74BFA00943A4631460A48019BFFF7C9
:100D800094FA3A196000811900940648019BFFF714
:100D90008CFAAD1C60003F1804988542DDD305B085
:100DA000F0BD000004610F40F7B58AB00746144655
:100DB000002008900420694908602020384000285D
:100DC00013D0A02F05D16168206800F0CFF80890FB
:100DD000A5E0A12F05D16168206800F0D9F808903E
:100DE0009DE00020C0430DB0F0BD5D4909880B981F
:100DF000884202DB0020C043F5E70C210B984843F2
:100E00005849096840184668002E01D1701EEAE76B
:100E1000002501E0681CC5B2A80020580028F9D1BF
:100E2000002D02D1B047089079E0012D03D1206850
:100E3000B047089073E0022D04D161682068B04784
:100E400008906CE0032D04D1204607C8B0470890F5
:100E500065E0042D06D1211D0EC907912068B04719
:100E600008905CE0052D08D120690090211D0EC975
:100E700007912068B047089051E0062D09D16169BB
:100E800020690191009020460FC80790B047089054
:100E900045E0072D0DD162692169A0690192009199
:100EA0000290E368A268079261682068B0470890E2
:100EB00035E0082D0DD163692269A169E0690193CC
:100EC00000920291039020460FC80790B047089007
:100ED00025E0092D10D1A3696269E169206A0293B6
:100EE00001920391049020690090211D0EC9079181
:100EF0002068B047089012E00A2D10D1E369A2697A
:100F0000216A606A039302920491059061692069E5
:100F10000191009020460FC80790B04708908020AC
:100F20003840002818D0104908980968C8600C2378
:100F30000B9A5A430B4B1B68D2180821515E3A4654
:100F400080239A4340231A43104600F067FA099021
:100F5000002801D0099846E7002044E7242000003B
:100F600018200000142000002020000070B5064664
:100F70000C46304600F088F8054621880C2068436E
:100F8000024A126880180181284670BD14200000B2
:100F9000F8B504460D4601200C490860FFF7B7FC80
:100FA0000646002009490860012009490860208898
:100FB000084908802878084908600020034602464E
:100FC00001210090FFF794FC3046F8BD2C20000072
:100FD0001C2000001A2000003020000001460020E4
:100FE00070470120400270470146012901D10448A1
:100FF0007047022901D10348FAE70020F8E7000012
:1010000004F00020FC0F0000F0B505460B485043EB
:1010100006460B48846807E009488368181BB042FD
:1010200002D90020C043F0BD064840880128F3D112
:101030000020044F78800846F5E70000E01C03001C
:101040000050084000F00020F0B505460B48504322
:1010500006460B48846807E009488368181BB042BD
:1010600002D90020C043F0BD064800880128F3D013
:101070000120044F38800846F5E70000E01C03001B
:101080000050084000F0002070B50546002414E030
:101090000C2060430C490968085800280BD00C212B
:1010A0006143094A126850582946FFF760FA002840
:1010B00001D1204670BD601C04B2044800888442FF
:1010C000E6DB0020C043F5E71420000018200000F4
:1010D00010B502490248FFF75BFD10BD0C2000006F
:1010E0000820000010B5FFF715FCFFF787FCFFF79D
:1010F000DDFC00F075F9FFF7A1FC002010BD000039
:10110000F0B50B30C108C900144F0026144A0FE097
:1011100003688B420BD38B4205D95C1A4318456890
:1011200030C3083B00E04368136002C004E0021DC6
:1011300010680028ECD13046002803D13868002818
:1011400001D00020F0BD064A06481060064A121A77
:10115000D208D20044C001203860D7E73820000010
:1011600034200000442000004024000000B5034665
:1011700000F02AF8002821DD114800684188104855
:1011800000684088401C0E4A1268508089000C4854
:101190000068083043500A4800688088401C0849AD
:1011A000096888800648006840880649884203D15B
:1011B0000020034909684880012000BD0020FCE7A9
:1011C00000200000FE0B0000054800688088044AEB
:1011D0001268D288801A81B20248401A80B27047E1
:1011E00000200000FE0B000070B512480088044685
:1011F00020340C2161430846FFF782FF05460C208E
:10120000604301462846FFF7A0F90A4800880C21F0
:1012100048430246084801682846FFF77DF906481A
:101220000068FFF753FC0448056002490C80002069
:1012300070BD0000182000001420000001460420AA
:10124000C0437047FFB583B01746069A04990398C8
:1012500000F08EF802900298002802D0029807B0A1
:10126000F0BD039800784021084000280AD03E488D
:1012700000680C30386004213B480068C1721024BB
:10128000012501E00C24002563E00A2D02D1002095
:10129000C043E4E72046641C33490968085C0190B8
:1012A00001980607360F802101980840002814D1C4
:1012B000701E2040002804D0701E214681438819EA
:1012C00000E020460446284800680019A90078502C
:1012D00001980007000F041939E00198A1280CD1EA
:1012E000214800680019A90078501F4909680819A9
:1012F000FFF736F9401C041929E0A007800F0028E9
:1013000003D0A0088000001D00E0204604461648D7
:101310000068005900901448006802192946681CAA
:10132000C5B288003A50241D701E2040002804D009
:10133000701E21468143881900E0204604460A4871
:1013400000680019A9007850009870430419681CBF
:10135000C5B2064800680C30844296D30020A9002C
:10136000785000BF7BE70000202000002420000010
:10137000F7B505460E461CE00298002802D0FF2073
:10138000F53000E000200246402112480068FFF7D7
:101390003BFE041E01DA2046FEBD402C02DA00208E
:1013A000C043F9E70B48006807680B48874200D143
:1013B00000E0E1E700BF07480068007928700548B1
:1013C0000068C0883080034800688068034908606E
:1013D0000020E1E7202000005555AAAA24200000A3
:1013E00010B5034903A0FFF7E9FA002010BD000083
:1013F000910B0000676574524C534672616D650035
:1014000070B505460E463146284600F021F80446E0
:10141000002C01D0204670BD0020FCE7F8B5064640
:101420000F46002508E039463046FFF7E9FF04463D
:10143000002C00D102E06D1C032DF4DB00BF002C5A
:1014400002DA0020014908602046F8BD1C20000097
:1014500070B504460D460E480E49096808600D48EF
:10146000006804710B480068C5800B480068094992
:1014700009688860FF22F532402106480068FFF7BE
:10148000E3FD061E01DA304670BD0020FCE70000D7
:101490005555AAAA20200000242000007047000013
:1014A00000BF0B4821210902401840680121C902F0
:1014B00008400028F5D000BF054821210902401846
:1014C00040680121C90208400028F5D1704700009A
:1014D00000400F4000B5034600BF0E48212109021D
:1014E000401840680121090308400028F5D000BFDA
:1014F00008482121090240184068012109030840D9
:101500000028F5D1002202E0FFF7CAFF521C9A42E0
:10151000FAD300BD00400F4070B505460E46002DC1
:1015200001D1401E70BD2846FFF7AEFD0446002CD9
:1015300019DA002401E0601C04B2114800888442DA
:1015400006DA0C2060430F49096808580028F2D1D8
:101550000B480088844206D1FFF746FE31462846F4
:10156000FFF7DAFFDEE70C206043064909680D50FB
:101570000C20604303490968401846602046D1E7C3
:101580001820000014200000A81500000020000012
:101590003C00000068060000E41500003C2000004C
:1015A000040800007806000000C000200000FF00D2
:1015B00000000810002008100000000000000000DB
:1015C000000000000000000000000000000000001B
:1015D000000000000000000000000000000000000B
:0415E0000000000007
:04000005000000B93E
:00000001FF
